{
    "contractName": "web3RSVP",
    "abi": [
        {
            "inputs": [
                {
                    "internalType": "bytes32",
                    "name": "eventId",
                    "type": "bytes32"
                },
                {
                    "internalType": "address",
                    "name": "attendee",
                    "type": "address"
                }
            ],
            "name": "confirmAttendee",
            "outputs": [],
            "stateMutability": "nonpayable",
            "type": "function"
        },
        {
            "inputs": [
                {
                    "internalType": "uint256",
                    "name": "eventTimestamp",
                    "type": "uint256"
                },
                {
                    "internalType": "uint256",
                    "name": "deposit",
                    "type": "uint256"
                },
                {
                    "internalType": "uint256",
                    "name": "maxCapacity",
                    "type": "uint256"
                },
                {
                    "internalType": "string",
                    "name": "eventDataCID",
                    "type": "string"
                }
            ],
            "name": "createNewEvent",
            "outputs": [],
            "stateMutability": "nonpayable",
            "type": "function"
        },
        {
            "inputs": [
                {
                    "internalType": "bytes32",
                    "name": "eventId",
                    "type": "bytes32"
                }
            ],
            "name": "createNewRSVP",
            "outputs": [],
            "stateMutability": "payable",
            "type": "function"
        },
        {
            "inputs": [
                {
                    "internalType": "bytes32",
                    "name": "",
                    "type": "bytes32"
                }
            ],
            "name": "idToEvent",
            "outputs": [
                {
                    "internalType": "bytes32",
                    "name": "eventId",
                    "type": "bytes32"
                },
                {
                    "internalType": "string",
                    "name": "eventDataCID",
                    "type": "string"
                },
                {
                    "internalType": "address",
                    "name": "eventOwner",
                    "type": "address"
                },
                {
                    "internalType": "uint256",
                    "name": "eventTimestamp",
                    "type": "uint256"
                },
                {
                    "internalType": "uint256",
                    "name": "deposit",
                    "type": "uint256"
                },
                {
                    "internalType": "uint256",
                    "name": "maxCapacity",
                    "type": "uint256"
                },
                {
                    "internalType": "bool",
                    "name": "paidOut",
                    "type": "bool"
                }
            ],
            "stateMutability": "view",
            "type": "function"
        }
    ],
    "bytecode": "608060405234801561001057600080fd5b50610bb5806100206000396000f3fe60806040526004361061003e5760003560e01c806292098c1461004357806317f0165a146100655780636dcdf2cd14610078578063909ef02114610098575b600080fd5b34801561004f57600080fd5b5061006361005e366004610850565b6100d4565b005b6100636100733660046108dd565b610275565b34801561008457600080fd5b506100636100933660046108f6565b610424565b3480156100a457600080fd5b506100b86100b33660046108dd565b610705565b6040516100cb9796959493929190610932565b60405180910390f35b6040516bffffffffffffffffffffffff1933606090811b8216602084015230901b16603482015260488101869052606881018590526088810184905260009060a80160405160208183030381529060405280519060200120905060608060405180610120016040528084815260200186868080601f016020809104026020016040519081016040528093929190818152602001838380828437600092018290525093855250503360208085019190915260408085018e9052606085018d9052608085018c905260a0850188905260c0850187905260e09094018390528783528281529290912083518155918301516001830191506101d29082610a6c565b5060408201516002820180546001600160a01b0319166001600160a01b03909216919091179055606082015160038201556080820151600482015560a0820151600582015560c082015180516102329160068401916020909101906107d6565b5060e0820151805161024e9160078401916020909101906107d6565b5061010091909101516008909101805460ff19169115159190911790555050505050505050565b6000818152602081905260409020600481015434146102db5760405162461bcd60e51b815260206004820152601860248201527f6e6f7420656e6f7567682065746820696e2077616c6c6574000000000000000060448201526064015b60405180910390fd5b80600301544211156103285760405162461bcd60e51b8152602060048201526016602482015275195d995b9d08185b1c9958591e481a185c1c195b995960521b60448201526064016102d2565b60058101546006820154111561036d5760405162461bcd60e51b815260206004820152600a602482015269195d995b9d08199d5b1b60b21b60448201526064016102d2565b60005b60068201548110156103fa5781600601818154811061039157610391610b2c565b6000918252602090912001546001600160a01b031633036103e85760405162461bcd60e51b81526020600482015260116024820152700616c7265616479207369676e656420757607c1b60448201526064016102d2565b806103f281610b42565b915050610370565b506006018054600181018255600091825260209091200180546001600160a01b0319163317905550565b600082815260208190526040902060028101546001600160a01b0316331461044b57600080fd5b6000805b60068301548110156104d357836001600160a01b031683600601828154811061047a5761047a610b2c565b6000918252602090912001546001600160a01b0316036104c1578260060181815481106104a9576104a9610b2c565b6000918252602090912001546001600160a01b031691505b806104cb81610b42565b91505061044f565b50826001600160a01b0316816001600160a01b03161461052a5760405162461bcd60e51b81526020600482015260126024820152714e4f205253565020544f20434f4e4649524d60701b60448201526064016102d2565b60005b60078301548110156105c157836001600160a01b031683600701828154811061055857610558610b2c565b6000918252602090912001546001600160a01b0316036105af5760405162461bcd60e51b815260206004820152601260248201527120a62922a0a22c9021a422a1a5a2a21024a760711b60448201526064016102d2565b806105b981610b42565b91505061052d565b50600882015460ff161561060a5760405162461bcd60e51b815260206004820152601060248201526f1053149150511648141052510813d55560821b60448201526064016102d2565b6007820180546001810182556000918252602082200180546001600160a01b0319166001600160a01b03861690811790915560048401546040518381818185875af1925050503d806000811461067c576040519150601f19603f3d011682016040523d82523d6000602084013e610681565b606091505b50509050806106c0578260070180548061069d5761069d610b69565b600082815260209020810160001990810180546001600160a01b03191690550190555b806106fe5760405162461bcd60e51b815260206004820152600e60248201526d119053125151081513c814d1539160921b60448201526064016102d2565b5050505050565b60006020819052908152604090208054600182018054919291610727906109e3565b80601f0160208091040260200160405190810160405280929190818152602001828054610753906109e3565b80156107a05780601f10610775576101008083540402835291602001916107a0565b820191906000526020600020905b81548152906001019060200180831161078357829003601f168201915b505050600284015460038501546004860154600587015460089097015495966001600160a01b0390931695919450925060ff1687565b82805482825590600052602060002090810192821561082b579160200282015b8281111561082b57825182546001600160a01b0319166001600160a01b039091161782556020909201916001909101906107f6565b5061083792915061083b565b5090565b5b80821115610837576000815560010161083c565b60008060008060006080868803121561086857600080fd5b853594506020860135935060408601359250606086013567ffffffffffffffff8082111561089557600080fd5b818801915088601f8301126108a957600080fd5b8135818111156108b857600080fd5b8960208285010111156108ca57600080fd5b9699959850939650602001949392505050565b6000602082840312156108ef57600080fd5b5035919050565b6000806040838503121561090957600080fd5b8235915060208301356001600160a01b038116811461092757600080fd5b809150509250929050565b8781526000602060e08184015288518060e085015260005b81811015610967578a81018301518582016101000152820161094a565b8181111561097a57600061010083870101525b50601f01601f191683016101000191506109a1905060408301886001600160a01b03169052565b8560608301528460808301528360a08301526109c160c083018415159052565b98975050505050505050565b634e487b7160e01b600052604160045260246000fd5b600181811c908216806109f757607f821691505b602082108103610a1757634e487b7160e01b600052602260045260246000fd5b50919050565b601f821115610a6757600081815260208120601f850160051c81016020861015610a445750805b601f850160051c820191505b81811015610a6357828155600101610a50565b5050505b505050565b815167ffffffffffffffff811115610a8657610a866109cd565b610a9a81610a9484546109e3565b84610a1d565b602080601f831160018114610acf5760008415610ab75750858301515b600019600386901b1c1916600185901b178555610a63565b600085815260208120601f198616915b82811015610afe57888601518255948401946001909101908401610adf565b5085821015610b1c5787850151600019600388901b60f8161c191681555b5050505050600190811b01905550565b634e487b7160e01b600052603260045260246000fd5b600060018201610b6257634e487b7160e01b600052601160045260246000fd5b5060010190565b634e487b7160e01b600052603160045260246000fdfea26469706673582212207f6735a123e2026236c7328f7313572d73d496102652b63e0082580fad4d3fcb64736f6c634300080f0033",
    "sourcePath": "/Users/martin/30day/web3rsvp/contracts/web3rsvp.sol",
    "compiler": {
        "name": "solc",
        "version": "0.8.15+commit.e14f2714"
    },
    "functionHashes": {
        "confirmAttendee(bytes32,address)": "6dcdf2cd",
        "createNewEvent(uint256,uint256,uint256,string)": "0092098c",
        "createNewRSVP(bytes32)": "17f0165a",
        "idToEvent(bytes32)": "909ef021"
    },
    "gasEstimates": {
        "creation": {
            "codeDepositCost": "599400",
            "executionCost": "632",
            "totalCost": "600032"
        },
        "external": {
            "confirmAttendee(bytes32,address)": "infinite",
            "createNewEvent(uint256,uint256,uint256,string)": "infinite",
            "createNewRSVP(bytes32)": "infinite",
            "idToEvent(bytes32)": "infinite"
        }
    }
}