{
    "contractName": "web3RSVP",
    "abi": [
        {
            "inputs": [
                {
                    "internalType": "bytes32",
                    "name": "eventId",
                    "type": "bytes32"
                }
            ],
            "name": "confirmAll",
            "outputs": [],
            "stateMutability": "nonpayable",
            "type": "function"
        },
        {
            "inputs": [
                {
                    "internalType": "bytes32",
                    "name": "eventId",
                    "type": "bytes32"
                },
                {
                    "internalType": "address",
                    "name": "attendee",
                    "type": "address"
                }
            ],
            "name": "confirmAttendee",
            "outputs": [],
            "stateMutability": "nonpayable",
            "type": "function"
        },
        {
            "inputs": [
                {
                    "internalType": "uint256",
                    "name": "eventTimestamp",
                    "type": "uint256"
                },
                {
                    "internalType": "uint256",
                    "name": "deposit",
                    "type": "uint256"
                },
                {
                    "internalType": "uint256",
                    "name": "maxCapacity",
                    "type": "uint256"
                },
                {
                    "internalType": "string",
                    "name": "eventDataCID",
                    "type": "string"
                }
            ],
            "name": "createNewEvent",
            "outputs": [],
            "stateMutability": "nonpayable",
            "type": "function"
        },
        {
            "inputs": [
                {
                    "internalType": "bytes32",
                    "name": "eventId",
                    "type": "bytes32"
                }
            ],
            "name": "createNewRSVP",
            "outputs": [],
            "stateMutability": "payable",
            "type": "function"
        },
        {
            "inputs": [
                {
                    "internalType": "bytes32",
                    "name": "",
                    "type": "bytes32"
                }
            ],
            "name": "idToEvent",
            "outputs": [
                {
                    "internalType": "bytes32",
                    "name": "eventId",
                    "type": "bytes32"
                },
                {
                    "internalType": "string",
                    "name": "eventDataCID",
                    "type": "string"
                },
                {
                    "internalType": "address",
                    "name": "eventOwner",
                    "type": "address"
                },
                {
                    "internalType": "uint256",
                    "name": "eventTimestamp",
                    "type": "uint256"
                },
                {
                    "internalType": "uint256",
                    "name": "deposit",
                    "type": "uint256"
                },
                {
                    "internalType": "uint256",
                    "name": "maxCapacity",
                    "type": "uint256"
                },
                {
                    "internalType": "bool",
                    "name": "paidOut",
                    "type": "bool"
                }
            ],
            "stateMutability": "view",
            "type": "function"
        },
        {
            "inputs": [
                {
                    "internalType": "bytes32",
                    "name": "eventId",
                    "type": "bytes32"
                }
            ],
            "name": "withdrawalFunds",
            "outputs": [],
            "stateMutability": "nonpayable",
            "type": "function"
        }
    ],
    "bytecode": "608060405234801561001057600080fd5b506110a6806100206000396000f3fe6080604052600436106100545760003560e01c806292098c14610059578063129c7d1d1461007b57806317f0165a1461009b5780636dcdf2cd146100ae578063909ef021146100ce578063e50514c91461010a575b600080fd5b34801561006557600080fd5b50610079610074366004610cec565b61012a565b005b34801561008757600080fd5b50610079610096366004610d79565b6102cb565b6100796100a9366004610d79565b610549565b3480156100ba57600080fd5b506100796100c9366004610d92565b6106f3565b3480156100da57600080fd5b506100ee6100e9366004610d79565b6109d4565b6040516101019796959493929190610dce565b60405180910390f35b34801561011657600080fd5b50610079610125366004610d79565b610aa5565b6040516bffffffffffffffffffffffff1933606090811b8216602084015230901b16603482015260488101869052606881018590526088810184905260009060a80160405160208183030381529060405280519060200120905060608060405180610120016040528084815260200186868080601f016020809104026020016040519081016040528093929190818152602001838380828437600092018290525093855250503360208085019190915260408085018e9052606085018d9052608085018c905260a0850188905260c0850187905260e09094018390528783528281529290912083518155918301516001830191506102289082610f07565b5060408201516002820180546001600160a01b0319166001600160a01b03909216919091179055606082015160038201556080820151600482015560a0820151600582015560c08201518051610288916006840191602090910190610c72565b5060e082015180516102a4916007840191602090910190610c72565b5061010091909101516008909101805460ff19169115159190911790555050505050505050565b6000806000838152602001908152602001600020604051806101200160405290816000820154815260200160018201805461030590610e7f565b80601f016020809104026020016040519081016040528092919081815260200182805461033190610e7f565b801561037e5780601f106103535761010080835404028352916020019161037e565b820191906000526020600020905b81548152906001019060200180831161036157829003601f168201915b505050505081526020016002820160009054906101000a90046001600160a01b03166001600160a01b03166001600160a01b031681526020016003820154815260200160048201548152602001600582015481526020016006820180548060200260200160405190810160405280929190818152602001828054801561042d57602002820191906000526020600020905b81546001600160a01b0316815260019091019060200180831161040f575b505050505081526020016007820180548060200260200160405190810160405280929190818152602001828054801561048f57602002820191906000526020600020905b81546001600160a01b03168152600190910190602001808311610471575b50505091835250506008919091015460ff16151560209091015260408101519091506001600160a01b031633146104fb5760405162461bcd60e51b815260206004820152600b60248201526a1393d50810531313d5d15160aa1b60448201526064015b60405180910390fd5b60005b8160c001515181101561054457610532838360c00151838151811061052557610525610fc7565b60200260200101516106f3565b8061053c81610ff3565b9150506104fe565b505050565b6000818152602081905260409020600481015434146105aa5760405162461bcd60e51b815260206004820152601860248201527f6e6f7420656e6f7567682065746820696e2077616c6c6574000000000000000060448201526064016104f2565b80600301544211156105f75760405162461bcd60e51b8152602060048201526016602482015275195d995b9d08185b1c9958591e481a185c1c195b995960521b60448201526064016104f2565b60058101546006820154111561063c5760405162461bcd60e51b815260206004820152600a602482015269195d995b9d08199d5b1b60b21b60448201526064016104f2565b60005b60068201548110156106c95781600601818154811061066057610660610fc7565b6000918252602090912001546001600160a01b031633036106b75760405162461bcd60e51b81526020600482015260116024820152700616c7265616479207369676e656420757607c1b60448201526064016104f2565b806106c181610ff3565b91505061063f565b506006018054600181018255600091825260209091200180546001600160a01b0319163317905550565b600082815260208190526040902060028101546001600160a01b0316331461071a57600080fd5b6000805b60068301548110156107a257836001600160a01b031683600601828154811061074957610749610fc7565b6000918252602090912001546001600160a01b0316036107905782600601818154811061077857610778610fc7565b6000918252602090912001546001600160a01b031691505b8061079a81610ff3565b91505061071e565b50826001600160a01b0316816001600160a01b0316146107f95760405162461bcd60e51b81526020600482015260126024820152714e4f205253565020544f20434f4e4649524d60701b60448201526064016104f2565b60005b600783015481101561089057836001600160a01b031683600701828154811061082757610827610fc7565b6000918252602090912001546001600160a01b03160361087e5760405162461bcd60e51b815260206004820152601260248201527120a62922a0a22c9021a422a1a5a2a21024a760711b60448201526064016104f2565b8061088881610ff3565b9150506107fc565b50600882015460ff16156108d95760405162461bcd60e51b815260206004820152601060248201526f1053149150511648141052510813d55560821b60448201526064016104f2565b6007820180546001810182556000918252602082200180546001600160a01b0319166001600160a01b03861690811790915560048401546040518381818185875af1925050503d806000811461094b576040519150601f19603f3d011682016040523d82523d6000602084013e610950565b606091505b505090508061098f578260070180548061096c5761096c61100c565b600082815260209020810160001990810180546001600160a01b03191690550190555b806109cd5760405162461bcd60e51b815260206004820152600e60248201526d119053125151081513c814d1539160921b60448201526064016104f2565b5050505050565b600060208190529081526040902080546001820180549192916109f690610e7f565b80601f0160208091040260200160405190810160405280929190818152602001828054610a2290610e7f565b8015610a6f5780601f10610a4457610100808354040283529160200191610a6f565b820191906000526020600020905b815481529060010190602001808311610a5257829003601f168201915b505050600284015460038501546004860154600587015460089097015495966001600160a01b0390931695919450925060ff1687565b600081815260208190526040902060028101546001600160a01b03163314610afd5760405162461bcd60e51b815260206004820152600b60248201526a1393d50810531313d5d15160aa1b60448201526064016104f2565b600881015460ff1615610b455760405162461bcd60e51b815260206004820152601060248201526f1053149150511648141052510813d55560821b60448201526064016104f2565b6003810154610b579062093a80611022565b421015610b925760405162461bcd60e51b8152602060048201526009602482015268544f4f204541524c5960b81b60448201526064016104f2565b60078101546006820154600091610ba89161103a565b90506000826004015482610bbc9190611051565b60088401805460ff1916600117905560028401546040519192506000916001600160a01b039091169083908381818185875af1925050503d8060008114610c1f576040519150601f19603f3d011682016040523d82523d6000602084013e610c24565b606091505b5050905080610c3a5760088401805460ff191690555b806109cd5760405162461bcd60e51b81526020600482015260086024820152671393d50814d1539560c21b60448201526064016104f2565b828054828255906000526020600020908101928215610cc7579160200282015b82811115610cc757825182546001600160a01b0319166001600160a01b03909116178255602090920191600190910190610c92565b50610cd3929150610cd7565b5090565b5b80821115610cd35760008155600101610cd8565b600080600080600060808688031215610d0457600080fd5b853594506020860135935060408601359250606086013567ffffffffffffffff80821115610d3157600080fd5b818801915088601f830112610d4557600080fd5b813581811115610d5457600080fd5b896020828501011115610d6657600080fd5b9699959850939650602001949392505050565b600060208284031215610d8b57600080fd5b5035919050565b60008060408385031215610da557600080fd5b8235915060208301356001600160a01b0381168114610dc357600080fd5b809150509250929050565b8781526000602060e08184015288518060e085015260005b81811015610e03578a810183015185820161010001528201610de6565b81811115610e1657600061010083870101525b50601f01601f19168301610100019150610e3d905060408301886001600160a01b03169052565b8560608301528460808301528360a0830152610e5d60c083018415159052565b98975050505050505050565b634e487b7160e01b600052604160045260246000fd5b600181811c90821680610e9357607f821691505b602082108103610eb357634e487b7160e01b600052602260045260246000fd5b50919050565b601f82111561054457600081815260208120601f850160051c81016020861015610ee05750805b601f850160051c820191505b81811015610eff57828155600101610eec565b505050505050565b815167ffffffffffffffff811115610f2157610f21610e69565b610f3581610f2f8454610e7f565b84610eb9565b602080601f831160018114610f6a5760008415610f525750858301515b600019600386901b1c1916600185901b178555610eff565b600085815260208120601f198616915b82811015610f9957888601518255948401946001909101908401610f7a565b5085821015610fb75787850151600019600388901b60f8161c191681555b5050505050600190811b01905550565b634e487b7160e01b600052603260045260246000fd5b634e487b7160e01b600052601160045260246000fd5b60006001820161100557611005610fdd565b5060010190565b634e487b7160e01b600052603160045260246000fd5b6000821982111561103557611035610fdd565b500190565b60008282101561104c5761104c610fdd565b500390565b600081600019048311821515161561106b5761106b610fdd565b50029056fea26469706673582212204b17d7b843aedaa6bd3cd4b7569e0f3a9a06ad27e654d3f7db0897a9e0acafee64736f6c634300080f0033",
    "sourcePath": "/Users/martin/30day/web3rsvp/contracts/web3rsvp.sol",
    "compiler": {
        "name": "solc",
        "version": "0.8.15+commit.e14f2714"
    },
    "functionHashes": {
        "confirmAll(bytes32)": "129c7d1d",
        "confirmAttendee(bytes32,address)": "6dcdf2cd",
        "createNewEvent(uint256,uint256,uint256,string)": "0092098c",
        "createNewRSVP(bytes32)": "17f0165a",
        "idToEvent(bytes32)": "909ef021",
        "withdrawalFunds(bytes32)": "e50514c9"
    },
    "gasEstimates": {
        "creation": {
            "codeDepositCost": "852400",
            "executionCost": "890",
            "totalCost": "853290"
        },
        "external": {
            "confirmAll(bytes32)": "infinite",
            "confirmAttendee(bytes32,address)": "infinite",
            "createNewEvent(uint256,uint256,uint256,string)": "infinite",
            "createNewRSVP(bytes32)": "infinite",
            "idToEvent(bytes32)": "infinite",
            "withdrawalFunds(bytes32)": "infinite"
        }
    }
}